{
  "_format": "hh-sol-artifact-1",
  "contractName": "TicTacToe",
  "sourceName": "contracts/TicTacToe.sol",
  "abi": [
    {
      "anonymous": false,
      "inputs": [
        {
          "indexed": false,
          "internalType": "uint256",
          "name": "gameId",
          "type": "uint256"
        },
        {
          "indexed": false,
          "internalType": "bool",
          "name": "asCircle",
          "type": "bool"
        },
        {
          "indexed": false,
          "internalType": "address",
          "name": "player",
          "type": "address"
        }
      ],
      "name": "Join",
      "type": "event"
    },
    {
      "anonymous": false,
      "inputs": [
        {
          "indexed": false,
          "internalType": "uint256",
          "name": "gameId",
          "type": "uint256"
        },
        {
          "indexed": false,
          "internalType": "enum TicTacToe.Cell",
          "name": "symbol",
          "type": "uint8"
        },
        {
          "indexed": false,
          "internalType": "uint8",
          "name": "x",
          "type": "uint8"
        },
        {
          "indexed": false,
          "internalType": "uint8",
          "name": "y",
          "type": "uint8"
        }
      ],
      "name": "Move",
      "type": "event"
    },
    {
      "anonymous": false,
      "inputs": [
        {
          "indexed": false,
          "internalType": "uint256",
          "name": "gameId",
          "type": "uint256"
        },
        {
          "indexed": false,
          "internalType": "enum TicTacToe.Cell",
          "name": "player",
          "type": "uint8"
        }
      ],
      "name": "Win",
      "type": "event"
    },
    {
      "inputs": [
        {
          "internalType": "uint256",
          "name": "gameId",
          "type": "uint256"
        },
        {
          "internalType": "uint256",
          "name": "stake",
          "type": "uint256"
        }
      ],
      "name": "createGame",
      "outputs": [],
      "stateMutability": "nonpayable",
      "type": "function"
    },
    {
      "inputs": [],
      "name": "gameCount",
      "outputs": [
        {
          "internalType": "uint256",
          "name": "",
          "type": "uint256"
        }
      ],
      "stateMutability": "view",
      "type": "function"
    },
    {
      "inputs": [
        {
          "internalType": "uint256",
          "name": "gameId",
          "type": "uint256"
        }
      ],
      "name": "getBoard",
      "outputs": [
        {
          "internalType": "enum TicTacToe.Cell[3][3]",
          "name": "",
          "type": "uint8[3][3]"
        }
      ],
      "stateMutability": "view",
      "type": "function"
    },
    {
      "inputs": [
        {
          "internalType": "uint256",
          "name": "gameId",
          "type": "uint256"
        }
      ],
      "name": "getGame",
      "outputs": [
        {
          "components": [
            {
              "internalType": "uint256",
              "name": "stake",
              "type": "uint256"
            },
            {
              "internalType": "address",
              "name": "pCircle",
              "type": "address"
            },
            {
              "internalType": "address",
              "name": "pCross",
              "type": "address"
            },
            {
              "internalType": "enum TicTacToe.Cell[3][3]",
              "name": "board",
              "type": "uint8[3][3]"
            },
            {
              "internalType": "bool",
              "name": "crossNext",
              "type": "bool"
            },
            {
              "internalType": "bool",
              "name": "ended",
              "type": "bool"
            }
          ],
          "internalType": "struct TicTacToe.Game",
          "name": "",
          "type": "tuple"
        }
      ],
      "stateMutability": "view",
      "type": "function"
    },
    {
      "inputs": [
        {
          "internalType": "uint256",
          "name": "gameId",
          "type": "uint256"
        },
        {
          "internalType": "bool",
          "name": "asCircle",
          "type": "bool"
        }
      ],
      "name": "join",
      "outputs": [],
      "stateMutability": "payable",
      "type": "function"
    },
    {
      "inputs": [
        {
          "internalType": "uint256",
          "name": "gameId",
          "type": "uint256"
        },
        {
          "internalType": "uint8",
          "name": "x",
          "type": "uint8"
        },
        {
          "internalType": "uint8",
          "name": "y",
          "type": "uint8"
        }
      ],
      "name": "move",
      "outputs": [],
      "stateMutability": "nonpayable",
      "type": "function"
    }
  ],
  "bytecode": "0x608060405234801561001057600080fd5b50613706806100206000396000f3fe6080604052600436106100555760003560e01c806345e09e541461005a5780634d1975b41461009757806360104cef146100c2578063a2f77bcc146100eb578063bdc4d50814610128578063d0b3da9914610151575b600080fd5b34801561006657600080fd5b50610081600480360381019061007c9190612d04565b61016d565b60405161008e919061315b565b60405180910390f35b3480156100a357600080fd5b506100ac61025e565b6040516100b99190613273565b60405180910390f35b3480156100ce57600080fd5b506100e960048036038101906100e49190612d69565b610264565b005b3480156100f757600080fd5b50610112600480360381019061010d9190612d04565b610450565b60405161011f9190613257565b60405180910390f35b34801561013457600080fd5b5061014f600480360381019061014a9190612da5565b61063e565b005b61016b60048036038101906101669190612d2d565b610c01565b005b610175612aa5565b60016000838152602001908152602001600020600301600380602002604051908101604052809291906000905b828210156102535783820160038060200260405190810160405280929190826003801561023f576020028201916000905b82829054906101000a900460ff166002811115610219577f4e487b7100000000000000000000000000000000000000000000000000000000600052602160045260246000fd5b815260200190600101906020826000010492830192600103820291508084116101d35790505b5050505050815260200190600101906101a2565b505050509050919050565b60005481565b60005482146102a8576040517f08c379a000000000000000000000000000000000000000000000000000000000815260040161029f90613197565b60405180910390fd5b6102b0612aa5565b6040518060c00160405280838152602001600073ffffffffffffffffffffffffffffffffffffffff168152602001600073ffffffffffffffffffffffffffffffffffffffff1681526020018281526020016000151581526020016000151581525060016000805481526020019081526020016000206000820151816000015560208201518160010160006101000a81548173ffffffffffffffffffffffffffffffffffffffff021916908373ffffffffffffffffffffffffffffffffffffffff16021790555060408201518160020160006101000a81548173ffffffffffffffffffffffffffffffffffffffff021916908373ffffffffffffffffffffffffffffffffffffffff1602179055506060820151816003019060036103d4929190612ad2565b5060808201518160060160006101000a81548160ff02191690831515021790555060a08201518160060160016101000a81548160ff0219169083151502179055509050508160016000805481526020019081526020016000206000018190555060008081548092919061044690613488565b9190505550505050565b610458612b20565b600160008381526020019081526020016000206040518060c0016040529081600082015481526020016001820160009054906101000a900473ffffffffffffffffffffffffffffffffffffffff1673ffffffffffffffffffffffffffffffffffffffff1673ffffffffffffffffffffffffffffffffffffffff1681526020016002820160009054906101000a900473ffffffffffffffffffffffffffffffffffffffff1673ffffffffffffffffffffffffffffffffffffffff1673ffffffffffffffffffffffffffffffffffffffff16815260200160038201600380602002604051908101604052809291906000905b828210156105f9578382016003806020026040519081016040528092919082600380156105e5576020028201916000905b82829054906101000a900460ff1660028111156105bf577f4e487b7100000000000000000000000000000000000000000000000000000000600052602160045260246000fd5b815260200190600101906020826000010492830192600103820291508084116105795790505b505050505081526020019060010190610548565b5050505081526020016006820160009054906101000a900460ff161515151581526020016006820160019054906101000a900460ff1615151515815250509050919050565b60006001600085815260200190815260200160002090506000600281111561068f577f4e487b7100000000000000000000000000000000000000000000000000000000600052602160045260246000fd5b816003018460ff16600381106106ce577f4e487b7100000000000000000000000000000000000000000000000000000000600052603260045260246000fd5b018360ff166003811061070a577f4e487b7100000000000000000000000000000000000000000000000000000000600052603260045260246000fd5b602091828204019190069054906101000a900460ff166002811115610758577f4e487b7100000000000000000000000000000000000000000000000000000000600052602160045260246000fd5b14610798576040517f08c379a000000000000000000000000000000000000000000000000000000000815260040161078f90613177565b60405180910390fd5b8060060160019054906101000a900460ff16156107ea576040517f08c379a00000000000000000000000000000000000000000000000000000000081526004016107e190613237565b60405180910390fd5b60008160060160009054906101000a900460ff1661082c578160010160009054906101000a900473ffffffffffffffffffffffffffffffffffffffff16610852565b8160020160009054906101000a900473ffffffffffffffffffffffffffffffffffffffff165b90508073ffffffffffffffffffffffffffffffffffffffff163373ffffffffffffffffffffffffffffffffffffffff16146108c2576040517f08c379a00000000000000000000000000000000000000000000000000000000081526004016108b990613217565b60405180910390fd5b60008260060160009054906101000a900460ff166108e15760016108e4565b60025b905080836003018660ff1660038110610926577f4e487b7100000000000000000000000000000000000000000000000000000000600052603260045260246000fd5b018560ff1660038110610962577f4e487b7100000000000000000000000000000000000000000000000000000000600052603260045260246000fd5b602091828204019190066101000a81548160ff021916908360028111156109b2577f4e487b7100000000000000000000000000000000000000000000000000000000600052602160045260246000fd5b02179055508260060160009054906101000a900460ff16158360060160006101000a81548160ff0219169083151502179055507f9790a5f6f871c1f2c88a44660454a3a0952cc8089bf07fc38c1737f897f0cd6286828787604051610a1a94939291906132ee565b60405180910390a1610afb83600301600380602002604051908101604052809291906000905b82821015610af157838201600380602002604051908101604052809291908260038015610add576020028201916000905b82829054906101000a900460ff166002811115610ab7577f4e487b7100000000000000000000000000000000000000000000000000000000600052602160045260246000fd5b81526020019060010190602082600001049283019260010382029150808411610a715790505b505050505081526020019060010190610a40565b5050505082610e9a565b15610b0f57610b0a86826125ff565b610bf9565b610be783600301600380602002604051908101604052809291906000905b82821015610bde57838201600380602002604051908101604052809291908260038015610bca576020028201916000905b82829054906101000a900460ff166002811115610ba4577f4e487b7100000000000000000000000000000000000000000000000000000000600052602160045260246000fd5b81526020019060010190602082600001049283019260010382029150808411610b5e5790505b505050505081526020019060010190610b2d565b50505050612958565b15610bf857610bf78660006125ff565b5b5b505050505050565b6000548210610c45576040517f08c379a0000000000000000000000000000000000000000000000000000000008152600401610c3c906131f7565b60405180910390fd5b600060016000848152602001908152602001600020905080600001543414610ca2576040517f08c379a0000000000000000000000000000000000000000000000000000000008152600401610c99906131b7565b60405180910390fd5b8115610d8357600073ffffffffffffffffffffffffffffffffffffffff168160010160009054906101000a900473ffffffffffffffffffffffffffffffffffffffff1673ffffffffffffffffffffffffffffffffffffffff1614610d3b576040517f08c379a0000000000000000000000000000000000000000000000000000000008152600401610d32906131d7565b60405180910390fd5b338160010160006101000a81548173ffffffffffffffffffffffffffffffffffffffff021916908373ffffffffffffffffffffffffffffffffffffffff160217905550610e5a565b600073ffffffffffffffffffffffffffffffffffffffff168160020160009054906101000a900473ffffffffffffffffffffffffffffffffffffffff1673ffffffffffffffffffffffffffffffffffffffff1614610e16576040517f08c379a0000000000000000000000000000000000000000000000000000000008152600401610e0d906131d7565b60405180910390fd5b338160020160006101000a81548173ffffffffffffffffffffffffffffffffffffffff021916908373ffffffffffffffffffffffffffffffffffffffff1602179055505b7f5689caa4e8d6ed981f0e86845d62ecd56b662aa2cda2790bdee7603b33aabc40838333604051610e8d9392919061328e565b60405180910390a1505050565b6000816002811115610ed5577f4e487b7100000000000000000000000000000000000000000000000000000000600052602160045260246000fd5b83600060038110610f0f577f4e487b7100000000000000000000000000000000000000000000000000000000600052603260045260246000fd5b6020020151600060038110610f4d577f4e487b7100000000000000000000000000000000000000000000000000000000600052603260045260246000fd5b60200201516002811115610f8a577f4e487b7100000000000000000000000000000000000000000000000000000000600052602160045260246000fd5b1480156110825750816002811115610fcb577f4e487b7100000000000000000000000000000000000000000000000000000000600052602160045260246000fd5b83600060038110611005577f4e487b7100000000000000000000000000000000000000000000000000000000600052603260045260246000fd5b6020020151600160038110611043577f4e487b7100000000000000000000000000000000000000000000000000000000600052603260045260246000fd5b60200201516002811115611080577f4e487b7100000000000000000000000000000000000000000000000000000000600052602160045260246000fd5b145b801561117957508160028111156110c2577f4e487b7100000000000000000000000000000000000000000000000000000000600052602160045260246000fd5b836000600381106110fc577f4e487b7100000000000000000000000000000000000000000000000000000000600052603260045260246000fd5b602002015160026003811061113a577f4e487b7100000000000000000000000000000000000000000000000000000000600052603260045260246000fd5b60200201516002811115611177577f4e487b7100000000000000000000000000000000000000000000000000000000600052602160045260246000fd5b145b1561118757600190506125f9565b8160028111156111c0577f4e487b7100000000000000000000000000000000000000000000000000000000600052602160045260246000fd5b836001600381106111fa577f4e487b7100000000000000000000000000000000000000000000000000000000600052603260045260246000fd5b6020020151600060038110611238577f4e487b7100000000000000000000000000000000000000000000000000000000600052603260045260246000fd5b60200201516002811115611275577f4e487b7100000000000000000000000000000000000000000000000000000000600052602160045260246000fd5b14801561136d57508160028111156112b6577f4e487b7100000000000000000000000000000000000000000000000000000000600052602160045260246000fd5b836001600381106112f0577f4e487b7100000000000000000000000000000000000000000000000000000000600052603260045260246000fd5b602002015160016003811061132e577f4e487b7100000000000000000000000000000000000000000000000000000000600052603260045260246000fd5b6020020151600281111561136b577f4e487b7100000000000000000000000000000000000000000000000000000000600052602160045260246000fd5b145b801561146457508160028111156113ad577f4e487b7100000000000000000000000000000000000000000000000000000000600052602160045260246000fd5b836001600381106113e7577f4e487b7100000000000000000000000000000000000000000000000000000000600052603260045260246000fd5b6020020151600260038110611425577f4e487b7100000000000000000000000000000000000000000000000000000000600052603260045260246000fd5b60200201516002811115611462577f4e487b7100000000000000000000000000000000000000000000000000000000600052602160045260246000fd5b145b1561147257600190506125f9565b8160028111156114ab577f4e487b7100000000000000000000000000000000000000000000000000000000600052602160045260246000fd5b836002600381106114e5577f4e487b7100000000000000000000000000000000000000000000000000000000600052603260045260246000fd5b6020020151600060038110611523577f4e487b7100000000000000000000000000000000000000000000000000000000600052603260045260246000fd5b60200201516002811115611560577f4e487b7100000000000000000000000000000000000000000000000000000000600052602160045260246000fd5b14801561165857508160028111156115a1577f4e487b7100000000000000000000000000000000000000000000000000000000600052602160045260246000fd5b836002600381106115db577f4e487b7100000000000000000000000000000000000000000000000000000000600052603260045260246000fd5b6020020151600160038110611619577f4e487b7100000000000000000000000000000000000000000000000000000000600052603260045260246000fd5b60200201516002811115611656577f4e487b7100000000000000000000000000000000000000000000000000000000600052602160045260246000fd5b145b801561174f5750816002811115611698577f4e487b7100000000000000000000000000000000000000000000000000000000600052602160045260246000fd5b836002600381106116d2577f4e487b7100000000000000000000000000000000000000000000000000000000600052603260045260246000fd5b6020020151600260038110611710577f4e487b7100000000000000000000000000000000000000000000000000000000600052603260045260246000fd5b6020020151600281111561174d577f4e487b7100000000000000000000000000000000000000000000000000000000600052602160045260246000fd5b145b1561175d57600190506125f9565b816002811115611796577f4e487b7100000000000000000000000000000000000000000000000000000000600052602160045260246000fd5b836000600381106117d0577f4e487b7100000000000000000000000000000000000000000000000000000000600052603260045260246000fd5b602002015160006003811061180e577f4e487b7100000000000000000000000000000000000000000000000000000000600052603260045260246000fd5b6020020151600281111561184b577f4e487b7100000000000000000000000000000000000000000000000000000000600052602160045260246000fd5b148015611943575081600281111561188c577f4e487b7100000000000000000000000000000000000000000000000000000000600052602160045260246000fd5b836001600381106118c6577f4e487b7100000000000000000000000000000000000000000000000000000000600052603260045260246000fd5b6020020151600060038110611904577f4e487b7100000000000000000000000000000000000000000000000000000000600052603260045260246000fd5b60200201516002811115611941577f4e487b7100000000000000000000000000000000000000000000000000000000600052602160045260246000fd5b145b8015611a3a5750816002811115611983577f4e487b7100000000000000000000000000000000000000000000000000000000600052602160045260246000fd5b836002600381106119bd577f4e487b7100000000000000000000000000000000000000000000000000000000600052603260045260246000fd5b60200201516000600381106119fb577f4e487b7100000000000000000000000000000000000000000000000000000000600052603260045260246000fd5b60200201516002811115611a38577f4e487b7100000000000000000000000000000000000000000000000000000000600052602160045260246000fd5b145b15611a4857600190506125f9565b816002811115611a81577f4e487b7100000000000000000000000000000000000000000000000000000000600052602160045260246000fd5b83600060038110611abb577f4e487b7100000000000000000000000000000000000000000000000000000000600052603260045260246000fd5b6020020151600160038110611af9577f4e487b7100000000000000000000000000000000000000000000000000000000600052603260045260246000fd5b60200201516002811115611b36577f4e487b7100000000000000000000000000000000000000000000000000000000600052602160045260246000fd5b148015611c2e5750816002811115611b77577f4e487b7100000000000000000000000000000000000000000000000000000000600052602160045260246000fd5b83600160038110611bb1577f4e487b7100000000000000000000000000000000000000000000000000000000600052603260045260246000fd5b6020020151600160038110611bef577f4e487b7100000000000000000000000000000000000000000000000000000000600052603260045260246000fd5b60200201516002811115611c2c577f4e487b7100000000000000000000000000000000000000000000000000000000600052602160045260246000fd5b145b8015611d255750816002811115611c6e577f4e487b7100000000000000000000000000000000000000000000000000000000600052602160045260246000fd5b83600260038110611ca8577f4e487b7100000000000000000000000000000000000000000000000000000000600052603260045260246000fd5b6020020151600160038110611ce6577f4e487b7100000000000000000000000000000000000000000000000000000000600052603260045260246000fd5b60200201516002811115611d23577f4e487b7100000000000000000000000000000000000000000000000000000000600052602160045260246000fd5b145b15611d3357600190506125f9565b816002811115611d6c577f4e487b7100000000000000000000000000000000000000000000000000000000600052602160045260246000fd5b83600060038110611da6577f4e487b7100000000000000000000000000000000000000000000000000000000600052603260045260246000fd5b6020020151600260038110611de4577f4e487b7100000000000000000000000000000000000000000000000000000000600052603260045260246000fd5b60200201516002811115611e21577f4e487b7100000000000000000000000000000000000000000000000000000000600052602160045260246000fd5b148015611f195750816002811115611e62577f4e487b7100000000000000000000000000000000000000000000000000000000600052602160045260246000fd5b83600160038110611e9c577f4e487b7100000000000000000000000000000000000000000000000000000000600052603260045260246000fd5b6020020151600260038110611eda577f4e487b7100000000000000000000000000000000000000000000000000000000600052603260045260246000fd5b60200201516002811115611f17577f4e487b7100000000000000000000000000000000000000000000000000000000600052602160045260246000fd5b145b80156120105750816002811115611f59577f4e487b7100000000000000000000000000000000000000000000000000000000600052602160045260246000fd5b83600260038110611f93577f4e487b7100000000000000000000000000000000000000000000000000000000600052603260045260246000fd5b6020020151600260038110611fd1577f4e487b7100000000000000000000000000000000000000000000000000000000600052603260045260246000fd5b6020020151600281111561200e577f4e487b7100000000000000000000000000000000000000000000000000000000600052602160045260246000fd5b145b1561201e57600190506125f9565b816002811115612057577f4e487b7100000000000000000000000000000000000000000000000000000000600052602160045260246000fd5b83600060038110612091577f4e487b7100000000000000000000000000000000000000000000000000000000600052603260045260246000fd5b60200201516000600381106120cf577f4e487b7100000000000000000000000000000000000000000000000000000000600052603260045260246000fd5b6020020151600281111561210c577f4e487b7100000000000000000000000000000000000000000000000000000000600052602160045260246000fd5b148015612204575081600281111561214d577f4e487b7100000000000000000000000000000000000000000000000000000000600052602160045260246000fd5b83600160038110612187577f4e487b7100000000000000000000000000000000000000000000000000000000600052603260045260246000fd5b60200201516001600381106121c5577f4e487b7100000000000000000000000000000000000000000000000000000000600052603260045260246000fd5b60200201516002811115612202577f4e487b7100000000000000000000000000000000000000000000000000000000600052602160045260246000fd5b145b80156122fb5750816002811115612244577f4e487b7100000000000000000000000000000000000000000000000000000000600052602160045260246000fd5b8360026003811061227e577f4e487b7100000000000000000000000000000000000000000000000000000000600052603260045260246000fd5b60200201516002600381106122bc577f4e487b7100000000000000000000000000000000000000000000000000000000600052603260045260246000fd5b602002015160028111156122f9577f4e487b7100000000000000000000000000000000000000000000000000000000600052602160045260246000fd5b145b1561230957600190506125f9565b816002811115612342577f4e487b7100000000000000000000000000000000000000000000000000000000600052602160045260246000fd5b8360006003811061237c577f4e487b7100000000000000000000000000000000000000000000000000000000600052603260045260246000fd5b60200201516002600381106123ba577f4e487b7100000000000000000000000000000000000000000000000000000000600052603260045260246000fd5b602002015160028111156123f7577f4e487b7100000000000000000000000000000000000000000000000000000000600052602160045260246000fd5b1480156124ef5750816002811115612438577f4e487b7100000000000000000000000000000000000000000000000000000000600052602160045260246000fd5b83600160038110612472577f4e487b7100000000000000000000000000000000000000000000000000000000600052603260045260246000fd5b60200201516001600381106124b0577f4e487b7100000000000000000000000000000000000000000000000000000000600052603260045260246000fd5b602002015160028111156124ed577f4e487b7100000000000000000000000000000000000000000000000000000000600052602160045260246000fd5b145b80156125e6575081600281111561252f577f4e487b7100000000000000000000000000000000000000000000000000000000600052602160045260246000fd5b83600260038110612569577f4e487b7100000000000000000000000000000000000000000000000000000000600052603260045260246000fd5b60200201516000600381106125a7577f4e487b7100000000000000000000000000000000000000000000000000000000600052603260045260246000fd5b602002015160028111156125e4577f4e487b7100000000000000000000000000000000000000000000000000000000600052602160045260246000fd5b145b156125f457600190506125f9565b600090505b92915050565b600060016000848152602001908152602001600020905060018160060160016101000a81548160ff0219169083151502179055506000600281111561266d577f4e487b7100000000000000000000000000000000000000000000000000000000600052602160045260246000fd5b8260028111156126a6577f4e487b7100000000000000000000000000000000000000000000000000000000600052602160045260246000fd5b14156127d3578060010160009054906101000a900473ffffffffffffffffffffffffffffffffffffffff1673ffffffffffffffffffffffffffffffffffffffff1681600001546040516126f890613146565b60006040518083038185875af1925050503d8060008114612735576040519150601f19603f3d011682016040523d82523d6000602084013e61273a565b606091505b5050508060020160009054906101000a900473ffffffffffffffffffffffffffffffffffffffff1673ffffffffffffffffffffffffffffffffffffffff16816000015460405161278990613146565b60006040518083038185875af1925050503d80600081146127c6576040519150601f19603f3d011682016040523d82523d6000602084013e6127cb565b606091505b50505061291a565b60006001600281111561280f577f4e487b7100000000000000000000000000000000000000000000000000000000600052602160045260246000fd5b836002811115612848577f4e487b7100000000000000000000000000000000000000000000000000000000600052602160045260246000fd5b14612877578160020160009054906101000a900473ffffffffffffffffffffffffffffffffffffffff1661289d565b8160010160009054906101000a900473ffffffffffffffffffffffffffffffffffffffff165b90508073ffffffffffffffffffffffffffffffffffffffff16826000015460026128c791906133b4565b6040516128d390613146565b60006040518083038185875af1925050503d8060008114612910576040519150601f19603f3d011682016040523d82523d6000602084013e612915565b606091505b505050505b7ff9dd1bb9f2730d48de47cde18b231e41c1c7229cb134f649a6f8fe5ffafb16c6838360405161294b9291906132c5565b60405180910390a1505050565b600080600090505b6003811015612a9a5760005b6003811015612a8657600060028111156129af577f4e487b7100000000000000000000000000000000000000000000000000000000600052602160045260246000fd5b8483600381106129e8577f4e487b7100000000000000000000000000000000000000000000000000000000600052603260045260246000fd5b60200201518260038110612a25577f4e487b7100000000000000000000000000000000000000000000000000000000600052603260045260246000fd5b60200201516002811115612a62577f4e487b7100000000000000000000000000000000000000000000000000000000600052602160045260246000fd5b1415612a7357600092505050612aa0565b8080612a7e90613488565b91505061296c565b508080612a9290613488565b915050612960565b50600190505b919050565b60405180606001604052806003905b612abc612b8c565b815260200190600190039081612ab45790505090565b8260038101928215612b0f579160200282015b82811115612b0e57825182906003612afe929190612bae565b5091602001919060010190612ae5565b5b509050612b1c9190612c7d565b5090565b6040518060c0016040528060008152602001600073ffffffffffffffffffffffffffffffffffffffff168152602001600073ffffffffffffffffffffffffffffffffffffffff168152602001612b74612aa5565b81526020016000151581526020016000151581525090565b6040518060600160405280600390602082028036833780820191505090505090565b826003601f01602090048101928215612c6c5791602002820160005b83821115612c3d57835183826101000a81548160ff02191690836002811115612c1c577f4e487b7100000000000000000000000000000000000000000000000000000000600052602160045260246000fd5b02179055509260200192600101602081600001049283019260010302612bca565b8015612c6a5782816101000a81549060ff0219169055600101602081600001049283019260010302612c3d565b505b509050612c799190612ca1565b5090565b5b80821115612c9d5760008181612c949190612cbe565b50600101612c7e565b5090565b5b80821115612cba576000816000905550600101612ca2565b5090565b5060009055565b600081359050612cd48161368b565b92915050565b600081359050612ce9816136a2565b92915050565b600081359050612cfe816136b9565b92915050565b600060208284031215612d1657600080fd5b6000612d2484828501612cda565b91505092915050565b60008060408385031215612d4057600080fd5b6000612d4e85828601612cda565b9250506020612d5f85828601612cc5565b9150509250929050565b60008060408385031215612d7c57600080fd5b6000612d8a85828601612cda565b9250506020612d9b85828601612cda565b9150509250929050565b600080600060608486031215612dba57600080fd5b6000612dc886828701612cda565b9350506020612dd986828701612cef565b9250506040612dea86828701612cef565b9150509250925092565b6000612e008383612ef0565b60608301905092915050565b6000612e188383612f65565b60208301905092915050565b612e2d8161340e565b82525050565b612e3c8161340e565b82525050565b612e4b81613347565b612e558184613377565b9250612e6082613333565b8060005b83811015612e91578151612e788782612df4565b9650612e838361335d565b925050600181019050612e64565b505050505050565b612ea281613347565b612eac8184613382565b9250612eb782613333565b8060005b83811015612ee8578151612ecf8782612df4565b9650612eda8361335d565b925050600181019050612ebb565b505050505050565b612ef981613352565b612f03818461338d565b9250612f0e8261333d565b8060005b83811015612f3f578151612f268782612e0c565b9650612f318361336a565b925050600181019050612f12565b505050505050565b612f5081613420565b82525050565b612f5f81613420565b82525050565b612f6e81613476565b82525050565b612f7d81613476565b82525050565b6000612f906017836133a3565b9150612f9b8261352f565b602082019050919050565b6000612fb3601b836133a3565b9150612fbe82613558565b602082019050919050565b6000612fd6600e836133a3565b9150612fe182613581565b602082019050919050565b6000612ff96025836133a3565b9150613004826135aa565b604082019050919050565b600061301c601a836133a3565b9150613027826135f9565b602082019050919050565b600061303f600e836133a3565b915061304a82613622565b602082019050919050565b6000613062600f836133a3565b915061306d8261364b565b602082019050919050565b6000613085600083613398565b915061309082613674565b600082019050919050565b6101c0820160008201516130b26000850182613119565b5060208201516130c56020850182612e24565b5060408201516130d86040850182612e24565b5060608201516130eb6060850182612e42565b5060808201516130ff610180850182612f47565b5060a08201516131136101a0850182612f47565b50505050565b6131228161345f565b82525050565b6131318161345f565b82525050565b61314081613469565b82525050565b600061315182613078565b9150819050919050565b6000610120820190506131716000830184612e99565b92915050565b6000602082019050818103600083015261319081612f83565b9050919050565b600060208201905081810360008301526131b081612fa6565b9050919050565b600060208201905081810360008301526131d081612fc9565b9050919050565b600060208201905081810360008301526131f081612fec565b9050919050565b600060208201905081810360008301526132108161300f565b9050919050565b6000602082019050818103600083015261323081613032565b9050919050565b6000602082019050818103600083015261325081613055565b9050919050565b60006101c08201905061326d600083018461309b565b92915050565b60006020820190506132886000830184613128565b92915050565b60006060820190506132a36000830186613128565b6132b06020830185612f56565b6132bd6040830184612e33565b949350505050565b60006040820190506132da6000830185613128565b6132e76020830184612f74565b9392505050565b60006080820190506133036000830187613128565b6133106020830186612f74565b61331d6040830185613137565b61332a6060830184613137565b95945050505050565b6000819050919050565b6000819050919050565b600060039050919050565b600060039050919050565b6000602082019050919050565b6000602082019050919050565b600081905092915050565b600081905092915050565b600081905092915050565b600081905092915050565b600082825260208201905092915050565b60006133bf8261345f565b91506133ca8361345f565b9250817fffffffffffffffffffffffffffffffffffffffffffffffffffffffffffffffff0483118215151615613403576134026134d1565b5b828202905092915050565b60006134198261343f565b9050919050565b60008115159050919050565b600081905061343a82613677565b919050565b600073ffffffffffffffffffffffffffffffffffffffff82169050919050565b6000819050919050565b600060ff82169050919050565b60006134818261342c565b9050919050565b60006134938261345f565b91507fffffffffffffffffffffffffffffffffffffffffffffffffffffffffffffffff8214156134c6576134c56134d1565b5b600182019050919050565b7f4e487b7100000000000000000000000000000000000000000000000000000000600052601160045260246000fd5b7f4e487b7100000000000000000000000000000000000000000000000000000000600052602160045260246000fd5b7f546869732063656c6c206973206e6f7420656d70747921000000000000000000600082015250565b7f496e76616c69642067616d652069642e2054727920616761696e2e0000000000600082015250565b7f50617920746865207374616b6521000000000000000000000000000000000000600082015250565b7f43616e2774206a6f696e2c2074686973207365617420686173206265656e207460008201527f616b656e2e000000000000000000000000000000000000000000000000000000602082015250565b7f546869732067616d6520646f6573206e6f742065786973747321000000000000600082015250565b7f4e6f7420796f7572206d6f766521000000000000000000000000000000000000600082015250565b7f47616d652068617320656e646564210000000000000000000000000000000000600082015250565b50565b6003811061368857613687613500565b5b50565b61369481613420565b811461369f57600080fd5b50565b6136ab8161345f565b81146136b657600080fd5b50565b6136c281613469565b81146136cd57600080fd5b5056fea264697066735822122092fb1691360a6c879def047d77db3728d1b6aa7ebb01247f41e2d94954fde5d764736f6c63430008040033",
  "linkReferences": {},
  "deployedLinkReferences": {}
}