{
  "_format": "hh-sol-artifact-1",
  "contractName": "TicTacToe",
  "sourceName": "contracts/TicTacToe.sol",
  "abi": [
    {
      "inputs": [],
      "stateMutability": "payable",
      "type": "constructor"
    },
    {
      "anonymous": false,
      "inputs": [
        {
          "indexed": false,
          "internalType": "enum TicTacToe.Cell",
          "name": "symbol",
          "type": "uint8"
        },
        {
          "indexed": false,
          "internalType": "uint8",
          "name": "x",
          "type": "uint8"
        },
        {
          "indexed": false,
          "internalType": "uint8",
          "name": "y",
          "type": "uint8"
        }
      ],
      "name": "Move",
      "type": "event"
    },
    {
      "anonymous": false,
      "inputs": [
        {
          "indexed": false,
          "internalType": "address",
          "name": "player",
          "type": "address"
        }
      ],
      "name": "Win",
      "type": "event"
    },
    {
      "inputs": [
        {
          "internalType": "enum TicTacToe.Cell",
          "name": "s",
          "type": "uint8"
        }
      ],
      "name": "checkWin",
      "outputs": [
        {
          "internalType": "bool",
          "name": "",
          "type": "bool"
        }
      ],
      "stateMutability": "view",
      "type": "function"
    },
    {
      "inputs": [],
      "name": "getBoard",
      "outputs": [
        {
          "internalType": "enum TicTacToe.Cell[3][3]",
          "name": "",
          "type": "uint8[3][3]"
        }
      ],
      "stateMutability": "view",
      "type": "function"
    },
    {
      "inputs": [
        {
          "internalType": "uint8",
          "name": "x",
          "type": "uint8"
        },
        {
          "internalType": "uint8",
          "name": "y",
          "type": "uint8"
        }
      ],
      "name": "getCell",
      "outputs": [
        {
          "internalType": "enum TicTacToe.Cell",
          "name": "",
          "type": "uint8"
        }
      ],
      "stateMutability": "view",
      "type": "function"
    },
    {
      "inputs": [],
      "name": "join",
      "outputs": [],
      "stateMutability": "payable",
      "type": "function"
    },
    {
      "inputs": [
        {
          "internalType": "uint8",
          "name": "x",
          "type": "uint8"
        },
        {
          "internalType": "uint8",
          "name": "y",
          "type": "uint8"
        }
      ],
      "name": "move",
      "outputs": [],
      "stateMutability": "nonpayable",
      "type": "function"
    }
  ],
  "bytecode": "0x60806040526000600360006101000a81548173ffffffffffffffffffffffffffffffffffffffff021916908373ffffffffffffffffffffffffffffffffffffffff1602179055506001600460146101000a81548160ff0219169083151502179055506000600460156101000a81548160ff02191690831515021790555033600460006101000a81548173ffffffffffffffffffffffffffffffffffffffff021916908373ffffffffffffffffffffffffffffffffffffffff1602179055506129d5806100cc6000396000f3fe60806040526004361061004a5760003560e01c80633264a34b1461004f5780634f4fdf801461007a578063701bd985146100b7578063a076a9b6146100e0578063b688a3631461011d575b600080fd5b34801561005b57600080fd5b50610064610127565b60405161007191906125c3565b60405180910390f35b34801561008657600080fd5b506100a1600480360381019061009c919061235c565b610202565b6040516100ae91906125fa565b60405180910390f35b3480156100c357600080fd5b506100de60048036038101906100d9919061235c565b61029a565b005b3480156100ec57600080fd5b5061010760048036038101906101029190612333565b61082e565b60405161011491906125df565b60405180910390f35b6101256120da565b005b61012f6122ba565b6000600380602002604051908101604052809291906000905b828210156101f9578382016003806020026040519081016040528092919082600380156101e5576020028201916000905b82829054906101000a900460ff1660028111156101bf577f4e487b7100000000000000000000000000000000000000000000000000000000600052602160045260246000fd5b815260200190600101906020826000010492830192600103820291508084116101795790505b505050505081526020019060010190610148565b50505050905090565b6000808360ff1660038110610240577f4e487b7100000000000000000000000000000000000000000000000000000000600052603260045260246000fd5b018260ff166003811061027c577f4e487b7100000000000000000000000000000000000000000000000000000000600052603260045260246000fd5b602091828204019190069054906101000a900460ff16905092915050565b600060028111156102d4577f4e487b7100000000000000000000000000000000000000000000000000000000600052602160045260246000fd5b60008360ff1660038110610311577f4e487b7100000000000000000000000000000000000000000000000000000000600052603260045260246000fd5b018260ff166003811061034d577f4e487b7100000000000000000000000000000000000000000000000000000000600052603260045260246000fd5b602091828204019190069054906101000a900460ff16600281111561039b577f4e487b7100000000000000000000000000000000000000000000000000000000600052602160045260246000fd5b146103db576040517f08c379a00000000000000000000000000000000000000000000000000000000081526004016103d2906126cc565b60405180910390fd5b600460159054906101000a900460ff161561042b576040517f08c379a00000000000000000000000000000000000000000000000000000000081526004016104229061268c565b60405180910390fd5b600460149054906101000a900460ff161561063757600460009054906101000a900473ffffffffffffffffffffffffffffffffffffffff1673ffffffffffffffffffffffffffffffffffffffff163373ffffffffffffffffffffffffffffffffffffffff16146104d0576040517f08c379a00000000000000000000000000000000000000000000000000000000081526004016104c79061266c565b60405180910390fd5b600160008360ff166003811061050f577f4e487b7100000000000000000000000000000000000000000000000000000000600052603260045260246000fd5b018260ff166003811061054b577f4e487b7100000000000000000000000000000000000000000000000000000000600052603260045260246000fd5b602091828204019190066101000a81548160ff0219169083600281111561059b577f4e487b7100000000000000000000000000000000000000000000000000000000600052602160045260246000fd5b02179055506000600460146101000a81548160ff0219169083151502179055507f2800f98f1e31645572c0a55002a1e9b1b43667493ce553b7d6d8d41e8b353190600183836040516105ef93929190612615565b60405180910390a1610601600161082e565b1561063257610631600460009054906101000a900473ffffffffffffffffffffffffffffffffffffffff166121fc565b5b61082a565b600360009054906101000a900473ffffffffffffffffffffffffffffffffffffffff1673ffffffffffffffffffffffffffffffffffffffff163373ffffffffffffffffffffffffffffffffffffffff16146106c7576040517f08c379a00000000000000000000000000000000000000000000000000000000081526004016106be9061266c565b60405180910390fd5b600260008360ff1660038110610706577f4e487b7100000000000000000000000000000000000000000000000000000000600052603260045260246000fd5b018260ff1660038110610742577f4e487b7100000000000000000000000000000000000000000000000000000000600052603260045260246000fd5b602091828204019190066101000a81548160ff02191690836002811115610792577f4e487b7100000000000000000000000000000000000000000000000000000000600052602160045260246000fd5b02179055506001600460146101000a81548160ff0219169083151502179055507f2800f98f1e31645572c0a55002a1e9b1b43667493ce553b7d6d8d41e8b353190600283836040516107e693929190612615565b60405180910390a16107f8600261082e565b1561082957610828600360009054906101000a900473ffffffffffffffffffffffffffffffffffffffff166121fc565b5b5b5050565b6000816002811115610869577f4e487b7100000000000000000000000000000000000000000000000000000000600052602160045260246000fd5b600080600381106108a3577f4e487b7100000000000000000000000000000000000000000000000000000000600052603260045260246000fd5b016000600381106108dd577f4e487b7100000000000000000000000000000000000000000000000000000000600052603260045260246000fd5b602091828204019190069054906101000a900460ff16600281111561092b577f4e487b7100000000000000000000000000000000000000000000000000000000600052602160045260246000fd5b148015610a30575081600281111561096c577f4e487b7100000000000000000000000000000000000000000000000000000000600052602160045260246000fd5b600080600381106109a6577f4e487b7100000000000000000000000000000000000000000000000000000000600052603260045260246000fd5b016001600381106109e0577f4e487b7100000000000000000000000000000000000000000000000000000000600052603260045260246000fd5b602091828204019190069054906101000a900460ff166002811115610a2e577f4e487b7100000000000000000000000000000000000000000000000000000000600052602160045260246000fd5b145b8015610b345750816002811115610a70577f4e487b7100000000000000000000000000000000000000000000000000000000600052602160045260246000fd5b60008060038110610aaa577f4e487b7100000000000000000000000000000000000000000000000000000000600052603260045260246000fd5b01600260038110610ae4577f4e487b7100000000000000000000000000000000000000000000000000000000600052603260045260246000fd5b602091828204019190069054906101000a900460ff166002811115610b32577f4e487b7100000000000000000000000000000000000000000000000000000000600052602160045260246000fd5b145b15610b4257600190506120d5565b816002811115610b7b577f4e487b7100000000000000000000000000000000000000000000000000000000600052602160045260246000fd5b6000600160038110610bb6577f4e487b7100000000000000000000000000000000000000000000000000000000600052603260045260246000fd5b01600060038110610bf0577f4e487b7100000000000000000000000000000000000000000000000000000000600052603260045260246000fd5b602091828204019190069054906101000a900460ff166002811115610c3e577f4e487b7100000000000000000000000000000000000000000000000000000000600052602160045260246000fd5b148015610d445750816002811115610c7f577f4e487b7100000000000000000000000000000000000000000000000000000000600052602160045260246000fd5b6000600160038110610cba577f4e487b7100000000000000000000000000000000000000000000000000000000600052603260045260246000fd5b01600160038110610cf4577f4e487b7100000000000000000000000000000000000000000000000000000000600052603260045260246000fd5b602091828204019190069054906101000a900460ff166002811115610d42577f4e487b7100000000000000000000000000000000000000000000000000000000600052602160045260246000fd5b145b8015610e495750816002811115610d84577f4e487b7100000000000000000000000000000000000000000000000000000000600052602160045260246000fd5b6000600160038110610dbf577f4e487b7100000000000000000000000000000000000000000000000000000000600052603260045260246000fd5b01600260038110610df9577f4e487b7100000000000000000000000000000000000000000000000000000000600052603260045260246000fd5b602091828204019190069054906101000a900460ff166002811115610e47577f4e487b7100000000000000000000000000000000000000000000000000000000600052602160045260246000fd5b145b15610e5757600190506120d5565b816002811115610e90577f4e487b7100000000000000000000000000000000000000000000000000000000600052602160045260246000fd5b6000600260038110610ecb577f4e487b7100000000000000000000000000000000000000000000000000000000600052603260045260246000fd5b01600060038110610f05577f4e487b7100000000000000000000000000000000000000000000000000000000600052603260045260246000fd5b602091828204019190069054906101000a900460ff166002811115610f53577f4e487b7100000000000000000000000000000000000000000000000000000000600052602160045260246000fd5b1480156110595750816002811115610f94577f4e487b7100000000000000000000000000000000000000000000000000000000600052602160045260246000fd5b6000600260038110610fcf577f4e487b7100000000000000000000000000000000000000000000000000000000600052603260045260246000fd5b01600160038110611009577f4e487b7100000000000000000000000000000000000000000000000000000000600052603260045260246000fd5b602091828204019190069054906101000a900460ff166002811115611057577f4e487b7100000000000000000000000000000000000000000000000000000000600052602160045260246000fd5b145b801561115e5750816002811115611099577f4e487b7100000000000000000000000000000000000000000000000000000000600052602160045260246000fd5b60006002600381106110d4577f4e487b7100000000000000000000000000000000000000000000000000000000600052603260045260246000fd5b0160026003811061110e577f4e487b7100000000000000000000000000000000000000000000000000000000600052603260045260246000fd5b602091828204019190069054906101000a900460ff16600281111561115c577f4e487b7100000000000000000000000000000000000000000000000000000000600052602160045260246000fd5b145b1561116c57600190506120d5565b8160028111156111a5577f4e487b7100000000000000000000000000000000000000000000000000000000600052602160045260246000fd5b600080600381106111df577f4e487b7100000000000000000000000000000000000000000000000000000000600052603260045260246000fd5b01600060038110611219577f4e487b7100000000000000000000000000000000000000000000000000000000600052603260045260246000fd5b602091828204019190069054906101000a900460ff166002811115611267577f4e487b7100000000000000000000000000000000000000000000000000000000600052602160045260246000fd5b14801561136d57508160028111156112a8577f4e487b7100000000000000000000000000000000000000000000000000000000600052602160045260246000fd5b60006001600381106112e3577f4e487b7100000000000000000000000000000000000000000000000000000000600052603260045260246000fd5b0160006003811061131d577f4e487b7100000000000000000000000000000000000000000000000000000000600052603260045260246000fd5b602091828204019190069054906101000a900460ff16600281111561136b577f4e487b7100000000000000000000000000000000000000000000000000000000600052602160045260246000fd5b145b801561147257508160028111156113ad577f4e487b7100000000000000000000000000000000000000000000000000000000600052602160045260246000fd5b60006002600381106113e8577f4e487b7100000000000000000000000000000000000000000000000000000000600052603260045260246000fd5b01600060038110611422577f4e487b7100000000000000000000000000000000000000000000000000000000600052603260045260246000fd5b602091828204019190069054906101000a900460ff166002811115611470577f4e487b7100000000000000000000000000000000000000000000000000000000600052602160045260246000fd5b145b1561148057600190506120d5565b8160028111156114b9577f4e487b7100000000000000000000000000000000000000000000000000000000600052602160045260246000fd5b600080600381106114f3577f4e487b7100000000000000000000000000000000000000000000000000000000600052603260045260246000fd5b0160016003811061152d577f4e487b7100000000000000000000000000000000000000000000000000000000600052603260045260246000fd5b602091828204019190069054906101000a900460ff16600281111561157b577f4e487b7100000000000000000000000000000000000000000000000000000000600052602160045260246000fd5b14801561168157508160028111156115bc577f4e487b7100000000000000000000000000000000000000000000000000000000600052602160045260246000fd5b60006001600381106115f7577f4e487b7100000000000000000000000000000000000000000000000000000000600052603260045260246000fd5b01600160038110611631577f4e487b7100000000000000000000000000000000000000000000000000000000600052603260045260246000fd5b602091828204019190069054906101000a900460ff16600281111561167f577f4e487b7100000000000000000000000000000000000000000000000000000000600052602160045260246000fd5b145b801561178657508160028111156116c1577f4e487b7100000000000000000000000000000000000000000000000000000000600052602160045260246000fd5b60006002600381106116fc577f4e487b7100000000000000000000000000000000000000000000000000000000600052603260045260246000fd5b01600160038110611736577f4e487b7100000000000000000000000000000000000000000000000000000000600052603260045260246000fd5b602091828204019190069054906101000a900460ff166002811115611784577f4e487b7100000000000000000000000000000000000000000000000000000000600052602160045260246000fd5b145b1561179457600190506120d5565b8160028111156117cd577f4e487b7100000000000000000000000000000000000000000000000000000000600052602160045260246000fd5b60008060038110611807577f4e487b7100000000000000000000000000000000000000000000000000000000600052603260045260246000fd5b01600260038110611841577f4e487b7100000000000000000000000000000000000000000000000000000000600052603260045260246000fd5b602091828204019190069054906101000a900460ff16600281111561188f577f4e487b7100000000000000000000000000000000000000000000000000000000600052602160045260246000fd5b14801561199557508160028111156118d0577f4e487b7100000000000000000000000000000000000000000000000000000000600052602160045260246000fd5b600060016003811061190b577f4e487b7100000000000000000000000000000000000000000000000000000000600052603260045260246000fd5b01600260038110611945577f4e487b7100000000000000000000000000000000000000000000000000000000600052603260045260246000fd5b602091828204019190069054906101000a900460ff166002811115611993577f4e487b7100000000000000000000000000000000000000000000000000000000600052602160045260246000fd5b145b8015611a9a57508160028111156119d5577f4e487b7100000000000000000000000000000000000000000000000000000000600052602160045260246000fd5b6000600260038110611a10577f4e487b7100000000000000000000000000000000000000000000000000000000600052603260045260246000fd5b01600260038110611a4a577f4e487b7100000000000000000000000000000000000000000000000000000000600052603260045260246000fd5b602091828204019190069054906101000a900460ff166002811115611a98577f4e487b7100000000000000000000000000000000000000000000000000000000600052602160045260246000fd5b145b15611aa857600190506120d5565b816002811115611ae1577f4e487b7100000000000000000000000000000000000000000000000000000000600052602160045260246000fd5b60008060038110611b1b577f4e487b7100000000000000000000000000000000000000000000000000000000600052603260045260246000fd5b01600060038110611b55577f4e487b7100000000000000000000000000000000000000000000000000000000600052603260045260246000fd5b602091828204019190069054906101000a900460ff166002811115611ba3577f4e487b7100000000000000000000000000000000000000000000000000000000600052602160045260246000fd5b148015611ca95750816002811115611be4577f4e487b7100000000000000000000000000000000000000000000000000000000600052602160045260246000fd5b6000600160038110611c1f577f4e487b7100000000000000000000000000000000000000000000000000000000600052603260045260246000fd5b01600160038110611c59577f4e487b7100000000000000000000000000000000000000000000000000000000600052603260045260246000fd5b602091828204019190069054906101000a900460ff166002811115611ca7577f4e487b7100000000000000000000000000000000000000000000000000000000600052602160045260246000fd5b145b8015611dae5750816002811115611ce9577f4e487b7100000000000000000000000000000000000000000000000000000000600052602160045260246000fd5b6000600260038110611d24577f4e487b7100000000000000000000000000000000000000000000000000000000600052603260045260246000fd5b01600260038110611d5e577f4e487b7100000000000000000000000000000000000000000000000000000000600052603260045260246000fd5b602091828204019190069054906101000a900460ff166002811115611dac577f4e487b7100000000000000000000000000000000000000000000000000000000600052602160045260246000fd5b145b15611dbc57600190506120d5565b816002811115611df5577f4e487b7100000000000000000000000000000000000000000000000000000000600052602160045260246000fd5b60008060038110611e2f577f4e487b7100000000000000000000000000000000000000000000000000000000600052603260045260246000fd5b01600260038110611e69577f4e487b7100000000000000000000000000000000000000000000000000000000600052603260045260246000fd5b602091828204019190069054906101000a900460ff166002811115611eb7577f4e487b7100000000000000000000000000000000000000000000000000000000600052602160045260246000fd5b148015611fbd5750816002811115611ef8577f4e487b7100000000000000000000000000000000000000000000000000000000600052602160045260246000fd5b6000600160038110611f33577f4e487b7100000000000000000000000000000000000000000000000000000000600052603260045260246000fd5b01600160038110611f6d577f4e487b7100000000000000000000000000000000000000000000000000000000600052603260045260246000fd5b602091828204019190069054906101000a900460ff166002811115611fbb577f4e487b7100000000000000000000000000000000000000000000000000000000600052602160045260246000fd5b145b80156120c25750816002811115611ffd577f4e487b7100000000000000000000000000000000000000000000000000000000600052602160045260246000fd5b6000600260038110612038577f4e487b7100000000000000000000000000000000000000000000000000000000600052603260045260246000fd5b01600060038110612072577f4e487b7100000000000000000000000000000000000000000000000000000000600052603260045260246000fd5b602091828204019190069054906101000a900460ff1660028111156120c0577f4e487b7100000000000000000000000000000000000000000000000000000000600052602160045260246000fd5b145b156120d057600190506120d5565b600090505b919050565b600073ffffffffffffffffffffffffffffffffffffffff16600360009054906101000a900473ffffffffffffffffffffffffffffffffffffffff1673ffffffffffffffffffffffffffffffffffffffff161461216b576040517f08c379a0000000000000000000000000000000000000000000000000000000008152600401612162906126ac565b60405180910390fd5b473460026121799190612762565b146121b9576040517f08c379a00000000000000000000000000000000000000000000000000000000081526004016121b09061264c565b60405180910390fd5b33600360006101000a81548173ffffffffffffffffffffffffffffffffffffffff021916908373ffffffffffffffffffffffffffffffffffffffff160217905550565b6001600460156101000a81548160ff0219169083151502179055508073ffffffffffffffffffffffffffffffffffffffff164760405161223b90612593565b60006040518083038185875af1925050503d8060008114612278576040519150601f19603f3d011682016040523d82523d6000602084013e61227d565b606091505b5050507fc94e26bc371c19185b9e577ef339d2a5bca910d48092cbb160550b311ddd8d98816040516122af91906125a8565b60405180910390a150565b60405180606001604052806003905b6122d16122e7565b8152602001906001900390816122c95790505090565b6040518060600160405280600390602082028036833780820191505090505090565b60008135905061231881612978565b92915050565b60008135905061232d81612988565b92915050565b60006020828403121561234557600080fd5b600061235384828501612309565b91505092915050565b6000806040838503121561236f57600080fd5b600061237d8582860161231e565b925050602061238e8582860161231e565b9150509250929050565b60006123a4838361242e565b60608301905092915050565b60006123bc8383612494565b60208301905092915050565b6123d1816127bc565b82525050565b6123e081612700565b6123ea8184612730565b92506123f5826126ec565b8060005b8381101561242657815161240d8782612398565b965061241883612716565b9250506001810190506123f9565b505050505050565b6124378161270b565b612441818461273b565b925061244c826126f6565b8060005b8381101561247d57815161246487826123b0565b965061246f83612723565b925050600181019050612450565b505050505050565b61248e816127ce565b82525050565b61249d81612824565b82525050565b6124ac81612824565b82525050565b60006124bf601883612751565b91506124ca82612894565b602082019050919050565b60006124e2600e83612751565b91506124ed826128bd565b602082019050919050565b6000612505600f83612751565b9150612510826128e6565b602082019050919050565b6000612528600083612746565b91506125338261290f565b600082019050919050565b600061254b601d83612751565b915061255682612912565b602082019050919050565b600061256e601183612751565b91506125798261293b565b602082019050919050565b61258d81612817565b82525050565b600061259e8261251b565b9150819050919050565b60006020820190506125bd60008301846123c8565b92915050565b6000610120820190506125d960008301846123d7565b92915050565b60006020820190506125f46000830184612485565b92915050565b600060208201905061260f60008301846124a3565b92915050565b600060608201905061262a60008301866124a3565b6126376020830185612584565b6126446040830184612584565b949350505050565b60006020820190508181036000830152612665816124b2565b9050919050565b60006020820190508181036000830152612685816124d5565b9050919050565b600060208201905081810360008301526126a5816124f8565b9050919050565b600060208201905081810360008301526126c58161253e565b9050919050565b600060208201905081810360008301526126e581612561565b9050919050565b6000819050919050565b6000819050919050565b600060039050919050565b600060039050919050565b6000602082019050919050565b6000602082019050919050565b600081905092915050565b600081905092915050565b600081905092915050565b600082825260208201905092915050565b600061276d8261280d565b91506127788361280d565b9250817fffffffffffffffffffffffffffffffffffffffffffffffffffffffffffffffff04831182151516156127b1576127b0612836565b5b828202905092915050565b60006127c7826127ed565b9050919050565b60008115159050919050565b60008190506127e882612964565b919050565b600073ffffffffffffffffffffffffffffffffffffffff82169050919050565b6000819050919050565b600060ff82169050919050565b600061282f826127da565b9050919050565b7f4e487b7100000000000000000000000000000000000000000000000000000000600052601160045260246000fd5b7f4e487b7100000000000000000000000000000000000000000000000000000000600052602160045260246000fd5b7f4861766520746f206d6174636820746865207374616b65210000000000000000600082015250565b7f4e6f7420796f7572206d6f766521000000000000000000000000000000000000600082015250565b7f47616d652068617320656e646564210000000000000000000000000000000000600082015250565b50565b7f43616e2774206a6f696e2c2067616d6520616c726164792066756c6c2e000000600082015250565b7f43616e277420706c617920746865726521000000000000000000000000000000600082015250565b6003811061297557612974612865565b5b50565b6003811061298557600080fd5b50565b61299181612817565b811461299c57600080fd5b5056fea264697066735822122051775c14bd8078c608ba0efe24930e4d54d13d4bb5b517c31675ca32440d8a3b64736f6c63430008040033",
  "linkReferences": {},
  "deployedLinkReferences": {}
}